{
  "contractName": "ESDToken",
  "abi": [
    {
      "inputs": [
        {
          "internalType": "uint256",
          "name": "_initialSupply",
          "type": "uint256"
        },
        {
          "internalType": "address",
          "name": "_admin",
          "type": "address"
        },
        {
          "internalType": "uint256",
          "name": "_maxCirculation",
          "type": "uint256"
        }
      ],
      "stateMutability": "nonpayable",
      "type": "constructor"
    },
    {
      "anonymous": false,
      "inputs": [
        {
          "indexed": true,
          "internalType": "address",
          "name": "owner",
          "type": "address"
        },
        {
          "indexed": true,
          "internalType": "address",
          "name": "spender",
          "type": "address"
        },
        {
          "indexed": false,
          "internalType": "uint256",
          "name": "value",
          "type": "uint256"
        }
      ],
      "name": "Approval",
      "type": "event"
    },
    {
      "anonymous": false,
      "inputs": [
        {
          "indexed": true,
          "internalType": "address",
          "name": "from",
          "type": "address"
        },
        {
          "indexed": true,
          "internalType": "address",
          "name": "to",
          "type": "address"
        },
        {
          "indexed": false,
          "internalType": "uint256",
          "name": "value",
          "type": "uint256"
        }
      ],
      "name": "Transfer",
      "type": "event"
    },
    {
      "inputs": [
        {
          "internalType": "address",
          "name": "owner",
          "type": "address"
        },
        {
          "internalType": "address",
          "name": "spender",
          "type": "address"
        }
      ],
      "name": "allowance",
      "outputs": [
        {
          "internalType": "uint256",
          "name": "",
          "type": "uint256"
        }
      ],
      "stateMutability": "view",
      "type": "function",
      "constant": true
    },
    {
      "inputs": [
        {
          "internalType": "address",
          "name": "spender",
          "type": "address"
        },
        {
          "internalType": "uint256",
          "name": "amount",
          "type": "uint256"
        }
      ],
      "name": "approve",
      "outputs": [
        {
          "internalType": "bool",
          "name": "",
          "type": "bool"
        }
      ],
      "stateMutability": "nonpayable",
      "type": "function"
    },
    {
      "inputs": [
        {
          "internalType": "address",
          "name": "account",
          "type": "address"
        }
      ],
      "name": "balanceOf",
      "outputs": [
        {
          "internalType": "uint256",
          "name": "",
          "type": "uint256"
        }
      ],
      "stateMutability": "view",
      "type": "function",
      "constant": true
    },
    {
      "inputs": [
        {
          "internalType": "address",
          "name": "spender",
          "type": "address"
        },
        {
          "internalType": "uint256",
          "name": "subtractedValue",
          "type": "uint256"
        }
      ],
      "name": "decreaseAllowance",
      "outputs": [
        {
          "internalType": "bool",
          "name": "",
          "type": "bool"
        }
      ],
      "stateMutability": "nonpayable",
      "type": "function"
    },
    {
      "inputs": [
        {
          "internalType": "address",
          "name": "spender",
          "type": "address"
        },
        {
          "internalType": "uint256",
          "name": "addedValue",
          "type": "uint256"
        }
      ],
      "name": "increaseAllowance",
      "outputs": [
        {
          "internalType": "bool",
          "name": "",
          "type": "bool"
        }
      ],
      "stateMutability": "nonpayable",
      "type": "function"
    },
    {
      "inputs": [],
      "name": "name",
      "outputs": [
        {
          "internalType": "string",
          "name": "",
          "type": "string"
        }
      ],
      "stateMutability": "view",
      "type": "function",
      "constant": true
    },
    {
      "inputs": [],
      "name": "symbol",
      "outputs": [
        {
          "internalType": "string",
          "name": "",
          "type": "string"
        }
      ],
      "stateMutability": "view",
      "type": "function",
      "constant": true
    },
    {
      "inputs": [],
      "name": "totalSupply",
      "outputs": [
        {
          "internalType": "uint256",
          "name": "",
          "type": "uint256"
        }
      ],
      "stateMutability": "view",
      "type": "function",
      "constant": true
    },
    {
      "inputs": [
        {
          "internalType": "address",
          "name": "to",
          "type": "address"
        },
        {
          "internalType": "uint256",
          "name": "amount",
          "type": "uint256"
        }
      ],
      "name": "transfer",
      "outputs": [
        {
          "internalType": "bool",
          "name": "",
          "type": "bool"
        }
      ],
      "stateMutability": "nonpayable",
      "type": "function"
    },
    {
      "inputs": [
        {
          "internalType": "address",
          "name": "from",
          "type": "address"
        },
        {
          "internalType": "address",
          "name": "to",
          "type": "address"
        },
        {
          "internalType": "uint256",
          "name": "amount",
          "type": "uint256"
        }
      ],
      "name": "transferFrom",
      "outputs": [
        {
          "internalType": "bool",
          "name": "",
          "type": "bool"
        }
      ],
      "stateMutability": "nonpayable",
      "type": "function"
    },
    {
      "inputs": [
        {
          "internalType": "uint256",
          "name": "_amount",
          "type": "uint256"
        }
      ],
      "name": "mintESD",
      "outputs": [],
      "stateMutability": "nonpayable",
      "type": "function"
    },
    {
      "inputs": [
        {
          "internalType": "address",
          "name": "_to",
          "type": "address"
        },
        {
          "internalType": "uint256",
          "name": "_amount",
          "type": "uint256"
        }
      ],
      "name": "transferTo",
      "outputs": [],
      "stateMutability": "nonpayable",
      "type": "function"
    },
    {
      "inputs": [
        {
          "internalType": "address",
          "name": "_from",
          "type": "address"
        },
        {
          "internalType": "address",
          "name": "_to",
          "type": "address"
        },
        {
          "internalType": "uint256",
          "name": "_amount",
          "type": "uint256"
        }
      ],
      "name": "_transferFrom",
      "outputs": [],
      "stateMutability": "nonpayable",
      "type": "function"
    },
    {
      "inputs": [
        {
          "internalType": "address",
          "name": "_spender",
          "type": "address"
        },
        {
          "internalType": "uint256",
          "name": "_amount",
          "type": "uint256"
        }
      ],
      "name": "approveTx",
      "outputs": [],
      "stateMutability": "nonpayable",
      "type": "function"
    },
    {
      "inputs": [],
      "name": "decimals",
      "outputs": [
        {
          "internalType": "uint8",
          "name": "",
          "type": "uint8"
        }
      ],
      "stateMutability": "view",
      "type": "function",
      "constant": true
    }
  ],
  "bytecode": "0x60806040523480156200001157600080fd5b50604051620020ed380380620020ed83398181016040528101906200003791906200045e565b6040518060400160405280600981526020017f45534420546f6b656e00000000000000000000000000000000000000000000008152506040518060400160405280600381526020017f45534400000000000000000000000000000000000000000000000000000000008152508160039080519060200190620000bb92919062000309565b508060049080519060200190620000d492919062000309565b50505081600560006101000a81548173ffffffffffffffffffffffffffffffffffffffff021916908373ffffffffffffffffffffffffffffffffffffffff16021790555080600681905550620001413362000135856200014a60201b60201c565b6200017e60201b60201c565b5050506200086e565b60006200015c620002f660201b60201c565b600a6200016a91906200064a565b826200017791906200069b565b9050919050565b600073ffffffffffffffffffffffffffffffffffffffff168273ffffffffffffffffffffffffffffffffffffffff1603620001f0576040517f08c379a0000000000000000000000000000000000000000000000000000000008152600401620001e7906200075d565b60405180910390fd5b6200020460008383620002ff60201b60201c565b80600260008282546200021891906200077f565b92505081905550806000808473ffffffffffffffffffffffffffffffffffffffff1673ffffffffffffffffffffffffffffffffffffffff16815260200190815260200160002060008282546200026f91906200077f565b925050819055508173ffffffffffffffffffffffffffffffffffffffff16600073ffffffffffffffffffffffffffffffffffffffff167fddf252ad1be2c89b69c2b068fc378daa952ba7f163c4a11628f55a4df523b3ef83604051620002d69190620007ed565b60405180910390a3620002f2600083836200030460201b60201c565b5050565b6000600a905090565b505050565b505050565b828054620003179062000839565b90600052602060002090601f0160209004810192826200033b576000855562000387565b82601f106200035657805160ff191683800117855562000387565b8280016001018555821562000387579182015b828111156200038657825182559160200191906001019062000369565b5b5090506200039691906200039a565b5090565b5b80821115620003b55760008160009055506001016200039b565b5090565b600080fd5b6000819050919050565b620003d381620003be565b8114620003df57600080fd5b50565b600081519050620003f381620003c8565b92915050565b600073ffffffffffffffffffffffffffffffffffffffff82169050919050565b60006200042682620003f9565b9050919050565b620004388162000419565b81146200044457600080fd5b50565b60008151905062000458816200042d565b92915050565b6000806000606084860312156200047a5762000479620003b9565b5b60006200048a86828701620003e2565b93505060206200049d8682870162000447565b9250506040620004b086828701620003e2565b9150509250925092565b7f4e487b7100000000000000000000000000000000000000000000000000000000600052601160045260246000fd5b60008160011c9050919050565b6000808291508390505b6001851115620005485780860481111562000520576200051f620004ba565b5b6001851615620005305780820291505b80810290506200054085620004e9565b945062000500565b94509492505050565b60008262000563576001905062000636565b8162000573576000905062000636565b81600181146200058c57600281146200059757620005cd565b600191505062000636565b60ff841115620005ac57620005ab620004ba565b5b8360020a915084821115620005c657620005c5620004ba565b5b5062000636565b5060208310610133831016604e8410600b8410161715620006075782820a905083811115620006015762000600620004ba565b5b62000636565b620006168484846001620004f6565b9250905081840481111562000630576200062f620004ba565b5b81810290505b9392505050565b600060ff82169050919050565b60006200065782620003be565b915062000664836200063d565b9250620006937fffffffffffffffffffffffffffffffffffffffffffffffffffffffffffffffff848462000551565b905092915050565b6000620006a882620003be565b9150620006b583620003be565b9250817fffffffffffffffffffffffffffffffffffffffffffffffffffffffffffffffff0483118215151615620006f157620006f0620004ba565b5b828202905092915050565b600082825260208201905092915050565b7f45524332303a206d696e7420746f20746865207a65726f206164647265737300600082015250565b600062000745601f83620006fc565b915062000752826200070d565b602082019050919050565b60006020820190508181036000830152620007788162000736565b9050919050565b60006200078c82620003be565b91506200079983620003be565b9250827fffffffffffffffffffffffffffffffffffffffffffffffffffffffffffffffff03821115620007d157620007d0620004ba565b5b828201905092915050565b620007e781620003be565b82525050565b6000602082019050620008046000830184620007dc565b92915050565b7f4e487b7100000000000000000000000000000000000000000000000000000000600052602260045260246000fd5b600060028204905060018216806200085257607f821691505b6020821081036200086857620008676200080a565b5b50919050565b61186f806200087e6000396000f3fe608060405234801561001057600080fd5b50600436106100f55760003560e01c80633a2715d511610097578063a457c2d711610066578063a457c2d714610286578063a9059cbb146102b6578063cb712535146102e6578063dd62ed3e14610302576100f5565b80633a2715d5146102005780636bf472401461021c57806370a082311461023857806395d89b4114610268576100f5565b806323b872dd116100d357806323b872dd146101665780632ccb1b3014610196578063313ce567146101b257806339509351146101d0576100f5565b806306fdde03146100fa578063095ea7b31461011857806318160ddd14610148575b600080fd5b610102610332565b60405161010f9190610e4d565b60405180910390f35b610132600480360381019061012d9190610f08565b6103c4565b60405161013f9190610f63565b60405180910390f35b6101506103e7565b60405161015d9190610f8d565b60405180910390f35b610180600480360381019061017b9190610fa8565b6103f1565b60405161018d9190610f63565b60405180910390f35b6101b060048036038101906101ab9190610f08565b610420565b005b6101ba610437565b6040516101c79190611017565b60405180910390f35b6101ea60048036038101906101e59190610f08565b610440565b6040516101f79190610f63565b60405180910390f35b61021a60048036038101906102159190611032565b610477565b005b61023660048036038101906102319190610f08565b61051c565b005b610252600480360381019061024d919061105f565b610533565b60405161025f9190610f8d565b60405180910390f35b61027061057b565b60405161027d9190610e4d565b60405180910390f35b6102a0600480360381019061029b9190610f08565b61060d565b6040516102ad9190610f63565b60405180910390f35b6102d060048036038101906102cb9190610f08565b610684565b6040516102dd9190610f63565b60405180910390f35b61030060048036038101906102fb9190610fa8565b6106a7565b005b61031c6004803603810190610317919061108c565b6106c0565b6040516103299190610f8d565b60405180910390f35b606060038054610341906110fb565b80601f016020809104026020016040519081016040528092919081815260200182805461036d906110fb565b80156103ba5780601f1061038f576101008083540402835291602001916103ba565b820191906000526020600020905b81548152906001019060200180831161039d57829003601f168201915b5050505050905090565b6000806103cf610747565b90506103dc81858561074f565b600191505092915050565b6000600254905090565b6000806103fc610747565b9050610409858285610918565b6104148585856109a4565b60019150509392505050565b6104328261042d83610c23565b610684565b505050565b6000600a905090565b60008061044b610747565b905061046c81858561045d85896106c0565b610467919061115b565b61074f565b600191505092915050565b600560009054906101000a900473ffffffffffffffffffffffffffffffffffffffff1673ffffffffffffffffffffffffffffffffffffffff163373ffffffffffffffffffffffffffffffffffffffff1614610507576040517f08c379a00000000000000000000000000000000000000000000000000000000081526004016104fe906111fd565b60405180910390fd5b6105193361051483610c23565b610c4b565b50565b61052e8261052983610c23565b6103c4565b505050565b60008060008373ffffffffffffffffffffffffffffffffffffffff1673ffffffffffffffffffffffffffffffffffffffff168152602001908152602001600020549050919050565b60606004805461058a906110fb565b80601f01602080910402602001604051908101604052809291908181526020018280546105b6906110fb565b80156106035780601f106105d857610100808354040283529160200191610603565b820191906000526020600020905b8154815290600101906020018083116105e657829003601f168201915b5050505050905090565b600080610618610747565b9050600061062682866106c0565b90508381101561066b576040517f08c379a00000000000000000000000000000000000000000000000000000000081526004016106629061128f565b60405180910390fd5b610678828686840361074f565b60019250505092915050565b60008061068f610747565b905061069c8185856109a4565b600191505092915050565b6106ba83836106b584610c23565b6103f1565b50505050565b6000600160008473ffffffffffffffffffffffffffffffffffffffff1673ffffffffffffffffffffffffffffffffffffffff16815260200190815260200160002060008373ffffffffffffffffffffffffffffffffffffffff1673ffffffffffffffffffffffffffffffffffffffff16815260200190815260200160002054905092915050565b600033905090565b600073ffffffffffffffffffffffffffffffffffffffff168373ffffffffffffffffffffffffffffffffffffffff16036107be576040517f08c379a00000000000000000000000000000000000000000000000000000000081526004016107b590611321565b60405180910390fd5b600073ffffffffffffffffffffffffffffffffffffffff168273ffffffffffffffffffffffffffffffffffffffff160361082d576040517f08c379a0000000000000000000000000000000000000000000000000000000008152600401610824906113b3565b60405180910390fd5b80600160008573ffffffffffffffffffffffffffffffffffffffff1673ffffffffffffffffffffffffffffffffffffffff16815260200190815260200160002060008473ffffffffffffffffffffffffffffffffffffffff1673ffffffffffffffffffffffffffffffffffffffff168152602001908152602001600020819055508173ffffffffffffffffffffffffffffffffffffffff168373ffffffffffffffffffffffffffffffffffffffff167f8c5be1e5ebec7d5bd14f71427d1e84f3dd0314c0f7b2291e5b200ac8c7c3b9258360405161090b9190610f8d565b60405180910390a3505050565b600061092484846106c0565b90507fffffffffffffffffffffffffffffffffffffffffffffffffffffffffffffffff811461099e5781811015610990576040517f08c379a00000000000000000000000000000000000000000000000000000000081526004016109879061141f565b60405180910390fd5b61099d848484840361074f565b5b50505050565b600073ffffffffffffffffffffffffffffffffffffffff168373ffffffffffffffffffffffffffffffffffffffff1603610a13576040517f08c379a0000000000000000000000000000000000000000000000000000000008152600401610a0a906114b1565b60405180910390fd5b600073ffffffffffffffffffffffffffffffffffffffff168273ffffffffffffffffffffffffffffffffffffffff1603610a82576040517f08c379a0000000000000000000000000000000000000000000000000000000008152600401610a7990611543565b60405180910390fd5b610a8d838383610daa565b60008060008573ffffffffffffffffffffffffffffffffffffffff1673ffffffffffffffffffffffffffffffffffffffff16815260200190815260200160002054905081811015610b13576040517f08c379a0000000000000000000000000000000000000000000000000000000008152600401610b0a906115d5565b60405180910390fd5b8181036000808673ffffffffffffffffffffffffffffffffffffffff1673ffffffffffffffffffffffffffffffffffffffff16815260200190815260200160002081905550816000808573ffffffffffffffffffffffffffffffffffffffff1673ffffffffffffffffffffffffffffffffffffffff1681526020019081526020016000206000828254610ba6919061115b565b925050819055508273ffffffffffffffffffffffffffffffffffffffff168473ffffffffffffffffffffffffffffffffffffffff167fddf252ad1be2c89b69c2b068fc378daa952ba7f163c4a11628f55a4df523b3ef84604051610c0a9190610f8d565b60405180910390a3610c1d848484610daf565b50505050565b6000610c2d610437565b600a610c399190611728565b82610c449190611773565b9050919050565b600073ffffffffffffffffffffffffffffffffffffffff168273ffffffffffffffffffffffffffffffffffffffff1603610cba576040517f08c379a0000000000000000000000000000000000000000000000000000000008152600401610cb190611819565b60405180910390fd5b610cc660008383610daa565b8060026000828254610cd8919061115b565b92505081905550806000808473ffffffffffffffffffffffffffffffffffffffff1673ffffffffffffffffffffffffffffffffffffffff1681526020019081526020016000206000828254610d2d919061115b565b925050819055508173ffffffffffffffffffffffffffffffffffffffff16600073ffffffffffffffffffffffffffffffffffffffff167fddf252ad1be2c89b69c2b068fc378daa952ba7f163c4a11628f55a4df523b3ef83604051610d929190610f8d565b60405180910390a3610da660008383610daf565b5050565b505050565b505050565b600081519050919050565b600082825260208201905092915050565b60005b83811015610dee578082015181840152602081019050610dd3565b83811115610dfd576000848401525b50505050565b6000601f19601f8301169050919050565b6000610e1f82610db4565b610e298185610dbf565b9350610e39818560208601610dd0565b610e4281610e03565b840191505092915050565b60006020820190508181036000830152610e678184610e14565b905092915050565b600080fd5b600073ffffffffffffffffffffffffffffffffffffffff82169050919050565b6000610e9f82610e74565b9050919050565b610eaf81610e94565b8114610eba57600080fd5b50565b600081359050610ecc81610ea6565b92915050565b6000819050919050565b610ee581610ed2565b8114610ef057600080fd5b50565b600081359050610f0281610edc565b92915050565b60008060408385031215610f1f57610f1e610e6f565b5b6000610f2d85828601610ebd565b9250506020610f3e85828601610ef3565b9150509250929050565b60008115159050919050565b610f5d81610f48565b82525050565b6000602082019050610f786000830184610f54565b92915050565b610f8781610ed2565b82525050565b6000602082019050610fa26000830184610f7e565b92915050565b600080600060608486031215610fc157610fc0610e6f565b5b6000610fcf86828701610ebd565b9350506020610fe086828701610ebd565b9250506040610ff186828701610ef3565b9150509250925092565b600060ff82169050919050565b61101181610ffb565b82525050565b600060208201905061102c6000830184611008565b92915050565b60006020828403121561104857611047610e6f565b5b600061105684828501610ef3565b91505092915050565b60006020828403121561107557611074610e6f565b5b600061108384828501610ebd565b91505092915050565b600080604083850312156110a3576110a2610e6f565b5b60006110b185828601610ebd565b92505060206110c285828601610ebd565b9150509250929050565b7f4e487b7100000000000000000000000000000000000000000000000000000000600052602260045260246000fd5b6000600282049050600182168061111357607f821691505b602082108103611126576111256110cc565b5b50919050565b7f4e487b7100000000000000000000000000000000000000000000000000000000600052601160045260246000fd5b600061116682610ed2565b915061117183610ed2565b9250827fffffffffffffffffffffffffffffffffffffffffffffffffffffffffffffffff038211156111a6576111a561112c565b5b828201905092915050565b7f41646d696e206f6e6c79206f7065726174696f6e000000000000000000000000600082015250565b60006111e7601483610dbf565b91506111f2826111b1565b602082019050919050565b60006020820190508181036000830152611216816111da565b9050919050565b7f45524332303a2064656372656173656420616c6c6f77616e63652062656c6f7760008201527f207a65726f000000000000000000000000000000000000000000000000000000602082015250565b6000611279602583610dbf565b91506112848261121d565b604082019050919050565b600060208201905081810360008301526112a88161126c565b9050919050565b7f45524332303a20617070726f76652066726f6d20746865207a65726f2061646460008201527f7265737300000000000000000000000000000000000000000000000000000000602082015250565b600061130b602483610dbf565b9150611316826112af565b604082019050919050565b6000602082019050818103600083015261133a816112fe565b9050919050565b7f45524332303a20617070726f766520746f20746865207a65726f20616464726560008201527f7373000000000000000000000000000000000000000000000000000000000000602082015250565b600061139d602283610dbf565b91506113a882611341565b604082019050919050565b600060208201905081810360008301526113cc81611390565b9050919050565b7f45524332303a20696e73756666696369656e7420616c6c6f77616e6365000000600082015250565b6000611409601d83610dbf565b9150611414826113d3565b602082019050919050565b60006020820190508181036000830152611438816113fc565b9050919050565b7f45524332303a207472616e736665722066726f6d20746865207a65726f20616460008201527f6472657373000000000000000000000000000000000000000000000000000000602082015250565b600061149b602583610dbf565b91506114a68261143f565b604082019050919050565b600060208201905081810360008301526114ca8161148e565b9050919050565b7f45524332303a207472616e7366657220746f20746865207a65726f206164647260008201527f6573730000000000000000000000000000000000000000000000000000000000602082015250565b600061152d602383610dbf565b9150611538826114d1565b604082019050919050565b6000602082019050818103600083015261155c81611520565b9050919050565b7f45524332303a207472616e7366657220616d6f756e742065786365656473206260008201527f616c616e63650000000000000000000000000000000000000000000000000000602082015250565b60006115bf602683610dbf565b91506115ca82611563565b604082019050919050565b600060208201905081810360008301526115ee816115b2565b9050919050565b60008160011c9050919050565b6000808291508390505b600185111561164c578086048111156116285761162761112c565b5b60018516156116375780820291505b8081029050611645856115f5565b945061160c565b94509492505050565b6000826116655760019050611721565b816116735760009050611721565b81600181146116895760028114611693576116c2565b6001915050611721565b60ff8411156116a5576116a461112c565b5b8360020a9150848211156116bc576116bb61112c565b5b50611721565b5060208310610133831016604e8410600b84101617156116f75782820a9050838111156116f2576116f161112c565b5b611721565b6117048484846001611602565b9250905081840481111561171b5761171a61112c565b5b81810290505b9392505050565b600061173382610ed2565b915061173e83610ffb565b925061176b7fffffffffffffffffffffffffffffffffffffffffffffffffffffffffffffffff8484611655565b905092915050565b600061177e82610ed2565b915061178983610ed2565b9250817fffffffffffffffffffffffffffffffffffffffffffffffffffffffffffffffff04831182151516156117c2576117c161112c565b5b828202905092915050565b7f45524332303a206d696e7420746f20746865207a65726f206164647265737300600082015250565b6000611803601f83610dbf565b915061180e826117cd565b602082019050919050565b60006020820190508181036000830152611832816117f6565b905091905056fea26469706673582212208a1fb796215c0a7ebc1e4d574a9a4d1939034452f7eb649562c24297b37cdad564736f6c634300080e0033",
  "immutableReferences": {},
  "source": "// SPDX-License-Identifier: MIT\npragma solidity >=0.4.22 <0.9.0;\nimport \"@openzeppelin/contracts/token/ERC20/ERC20.sol\";\n\ncontract ESDToken is ERC20 {\n    address private admin;\n    uint256 maxCirculation;\n\n    constructor(\n        uint256 _initialSupply,\n        address _admin,\n        uint256 _maxCirculation\n    ) ERC20(\"ESD Token\", \"ESD\") {\n        admin = _admin;\n        maxCirculation = _maxCirculation;\n        _mint(msg.sender, toESDwei(_initialSupply));\n    }\n\n    modifier onlyOwner() {\n        require(msg.sender == admin, \"Admin only operation\");\n        _;\n    }\n\n    function toESDwei(uint256 _ESD) internal view returns (uint256) {\n        return _ESD * 10**decimals();\n    }\n\n    function mintESD(uint256 _amount) external onlyOwner {\n        // require(totalSupply() + _amount <= maxCirculation, \"Exceeding limit\");\n        _mint(msg.sender, toESDwei(_amount));\n    }\n\n    //external tranfer fn\n    function transferTo(address _to, uint256 _amount) external {\n        transfer(_to, toESDwei(_amount));\n    }\n\n    //external _transerFrom\n    function _transferFrom(\n        address _from,\n        address _to,\n        uint256 _amount\n    ) external {\n        transferFrom(_from, _to, toESDwei(_amount));\n    }\n\n    //external approve\n    function approveTx(address _spender, uint256 _amount) external {\n        approve(_spender, toESDwei(_amount));\n    }\n\n\n    //override decimal\n    function decimals() public view virtual override returns (uint8) {\n        return 10;\n    }\n}\n",
  "sourcePath": "/home/user/Documents/Truffle-projects/erc20_token/contracts/ESDToken.sol",
  "compiler": {
    "name": "solc",
    "version": "0.8.14+commit.80d49f37.Emscripten.clang"
  },
  "schemaVersion": "3.4.7",
  "updatedAt": "2022-06-17T11:38:40.369Z",
  "networkType": "ethereum",
  "devdoc": {
    "kind": "dev",
    "methods": {
      "allowance(address,address)": {
        "details": "See {IERC20-allowance}."
      },
      "approve(address,uint256)": {
        "details": "See {IERC20-approve}. NOTE: If `amount` is the maximum `uint256`, the allowance is not updated on `transferFrom`. This is semantically equivalent to an infinite approval. Requirements: - `spender` cannot be the zero address."
      },
      "balanceOf(address)": {
        "details": "See {IERC20-balanceOf}."
      },
      "decimals()": {
        "details": "Returns the number of decimals used to get its user representation. For example, if `decimals` equals `2`, a balance of `505` tokens should be displayed to a user as `5.05` (`505 / 10 ** 2`). Tokens usually opt for a value of 18, imitating the relationship between Ether and Wei. This is the value {ERC20} uses, unless this function is overridden; NOTE: This information is only used for _display_ purposes: it in no way affects any of the arithmetic of the contract, including {IERC20-balanceOf} and {IERC20-transfer}."
      },
      "decreaseAllowance(address,uint256)": {
        "details": "Atomically decreases the allowance granted to `spender` by the caller. This is an alternative to {approve} that can be used as a mitigation for problems described in {IERC20-approve}. Emits an {Approval} event indicating the updated allowance. Requirements: - `spender` cannot be the zero address. - `spender` must have allowance for the caller of at least `subtractedValue`."
      },
      "increaseAllowance(address,uint256)": {
        "details": "Atomically increases the allowance granted to `spender` by the caller. This is an alternative to {approve} that can be used as a mitigation for problems described in {IERC20-approve}. Emits an {Approval} event indicating the updated allowance. Requirements: - `spender` cannot be the zero address."
      },
      "name()": {
        "details": "Returns the name of the token."
      },
      "symbol()": {
        "details": "Returns the symbol of the token, usually a shorter version of the name."
      },
      "totalSupply()": {
        "details": "See {IERC20-totalSupply}."
      },
      "transfer(address,uint256)": {
        "details": "See {IERC20-transfer}. Requirements: - `to` cannot be the zero address. - the caller must have a balance of at least `amount`."
      },
      "transferFrom(address,address,uint256)": {
        "details": "See {IERC20-transferFrom}. Emits an {Approval} event indicating the updated allowance. This is not required by the EIP. See the note at the beginning of {ERC20}. NOTE: Does not update the allowance if the current allowance is the maximum `uint256`. Requirements: - `from` and `to` cannot be the zero address. - `from` must have a balance of at least `amount`. - the caller must have allowance for ``from``'s tokens of at least `amount`."
      }
    },
    "version": 1
  },
  "userdoc": {
    "kind": "user",
    "methods": {},
    "version": 1
  }
}